:100C5A0057726F6E6720496E7075740057726F6EA7
:100C6A00672046756E6374696F6E004469766973AE
:0C0C7A00696F6E206279207A65726F004D
:1009EC00E4F509F50A750B2BF50CF50D120CF91243
:1009FC000B2D120D048F08120CA2AF08120CCDAFE8
:100A0C0008120AC38E098F0AE50A640D450960E2D3
:100A1C00120D048F08120CCDAF08120BF98F0BE5D9
:100A2C000B646560CD120D048F08120CCDAF08124B
:100A3C000AC38E0C8F0DE50D640D450C60B4120DC0
:100A4C00048F08120CCDE508643D7057E50B24D3D8
:100A5C00601724FE602D24B7601C244D7094E50AA9
:100A6C00250DFFE509350C800AC3E50A950DFFE558
:100A7C0009950CFE8027AC0CAD0DAE09AF0A12081F
:100A8C002D801AE50D450C70097F02FE120C2B020D
:100A9C0009FEAC0CAD0DAE09AF0A12083F120B7576
:100AAC000209FEE508B44306120CA20209FEE4FF9B
:070ABC00FE120C2B0209FEE3
:0B0CF900E4F5807590F0F5A0F5B02246
:040C86007F107E2736
:100C8A00E4FDFCC3ED9FEE6480F8EC6480985007A5
:070C9A000DBD00010C80EC10
:010CA1002230
:100CCD00D2B78FA0D2B67F967E00120C8AC2B60222
:020CDD000C8A7F
:040CA2007F017E0050
:100CA600C2B78FA0D2B67F967E00120C8AC2B60259
:020CB6000C8AA6
:100B2D007F987E3A120C8A7F307E00120CA67F943D
:100B3D007E11120C8A7F307E00120CA67F2C7E0156
:100B4D00120C8A7F301E120CA67F8A7E02120C8A2E
:100B5D007F387E00120CA67F0C7E00120CA6120CA4
:080B6D00A27F067E00020CA627
:0E0CDF007F027E00120CA67FDC7E05020C8ACE
:060BBC008B0F8A10891165
:100BC200E4F512F513AB0FAA10A911120CB8C3E584
:100BD200139FE5129E501DAB0FAA10A91185138217
:100BE200851283120800FF120CCD0513E51370D590
:070BF200051280D1020CDFA7
:10090900C290D291D292D293209409120C8630943B
:10091900FD7F3722209509120C863095FD7F3822FC
:10092900209609120C863096FD7F392220970912EC
:100939000C863097FD7F2F22D290C291D292D2930A
:10094900209409120C863094FD7F342220950912D7
:100959000C863095FD7F3522209609120C8630963B
:10096900FD7F3622209709120C863097FD7F782269
:10097900D290D291C292D293209409120C863094CB
:10098900FD7F3122209509120C863095FD7F322298
:10099900209609120C863096FD7F33222097091282
:1009A9000C863097FD7F2D22D290D291D292C2939C
:1009B900209409120C863094FD7F43222095091258
:1009C9000C863095FD7F3022209609120C863096D0
:1009D900FD7F3D22209709120C863097FD7F2B223F
:0309E9007F6E22FC
:0A0D04007F6EBF6E0512090980F82A
:010D0E0022C2
:100AC300EF1208750AEC300AF0310AF5320AFA33EC
:100AD3000AFF340B04350B09360B0E370B13380B97
:100AE30018390B1D4300000B22E4FEFF227E007F1A
:100AF30001227E007F02227E007F03227E007F048C
:100B0300227E007F05227E007F06227E007F072251
:100B13007E007F08227E007F0922120CA28006E459
:0A0B2300FFFE120C2B7E007F0D2256
:100BF9008F0EE50EB44306120CA27F6522E50E6442
:100C09002B601CE50E642D6016E50E64786010E516
:100C19000E642F600A7F017E00120C2B7F6522AFC4
:020C29000E2299
:100C2B00AB07AA06120CA2EA7009EB14600714605A
:100C3B000C240280107BFF7A0C7966800E7BFF7A86
:0F0C4B000C797580067BFF7A0C795A120BBC224C
:040B7500AB07AA061A
:100B7900E4F50EF9C3EA6480948050107CFF7DFF90
:100B890012082DAA06AB077F2D120CCD7C007D0A19
:100B9900AF03AE0212083FA907E960062430FF122D
:100BA9000CCDE975F00AA4FEC3EB9EF50E2430FFC7
:030BB900020CCD5E
:03000000020CED02
:0C0CED00787FE4F6D8FD7581130209EC55
:10080000BB010CE58229F582E5833AF583E02250AD
:1008100006E92582F8E622BBFE06E92582F8E222F7
:0D082000E58229F582E5833AF583E4932211
:10082D00EF8DF0A4A8F0CF8CF0A428CE8DF0A42EDF
:02083D00FE2299
:10083F00C2D5EC30E709B2D5E4C39DFDE49CFCEED4
:10084F0030E715B2D5E4C39FFFE49EFE1208B4C390
:10085F00E49DFDE49CFC80031208B430D507C3E48B
:06086F009FFFE49EFE2243
:10087500D083D082F8E4937012740193700DA3A312
:1008850093F8740193F5828883E473740293686026
:06089500EFA3A3A380DF26
:100CB800E4FFFE12089B600C0FEF70010E09E9704B
:050CC800F20A80EF229A
:10089B00BB010689828A83E0225002E722BBFE025B
:0908AB00E32289828A83E493228E
:1008B400BC000BBE0029EF8DF084FFADF022E4CC28
:1008C400F875F008EF2FFFEE33FEEC33FCEE9DECF1
:1008D400984005FCEE9DFE0FD5F0E9E4CEFD22ED37
:1008E400F8F5F0EE8420D21CFEADF075F008EF2F81
:1008F400FFED33FD4007985006D5F0F222C398FD72
:050904000FD5F0EA220E
:00000001FF
