:0C0992000A08C0F9A4B0999282F8809085
:08096B00F8E6F5807F057E002F
:10097300EF1FAC0670011E4C6014758901758CFC69
:0F098300758A18D28C308DFDC28DC28C80E22215
:10088C00EF75F00A84F515EF75F00A8485F016ED16
:10089C0075F00A84F517ED75F00A84A9F0EB75F084
:1008AC000A84FDEB75F00A84ABF0E4FAEAC3941900
:1008BC0074809480504912096FC2A07408251512D7
:1008CC00096BD2A0C2A17408251612096BD2A1C261
:1008DC00A27408251712096BD2A2C2A3740829129C
:1008EC00096BD2A3C2A474082D12096BD2A4C2A5A1
:0F08FC0074082B12096BD2A512096F0A0208B8F3
:01090B0022C9
:10090C00E4F512F513F514C2B0B2B00514AB14AD86
:10091C0013AF1212088CAF147E00EF643B7002050B
:10092C0013E513643B7002051220B602051220B7C2
:10093C00020513D3EF943BEE648094804003E4F5FE
:10094C0014D3E513943B748094804003E4F513D3E3
:0F095C00E51294187480948040AFE4F51280AADD
:03000000020800F3
:0C080000787FE4F6D8FD758117020847E8
:10080C0002090CE493A3F8E493A34003F68001F2ED
:10081C0008DFF48029E493A3F85407240CC8C333ED
:10082C00C4540F4420C8834004F456800146F6DFBC
:10083C00E4800B0102040810204080900992E47EB1
:10084C00019360BCA3FF543F30E509541FFEE493B1
:10085C00A360010ECF54C025E060A840B8E493A378
:10086C00FAE493A3F8E493A3C8C582C8CAC583CAA3
:10087C00F0A3C8C582C8CAC583CADFE9DEE780BE5B
:01099E000058
:00000001FF
