:0C099E000A08C0F9A4B0999282F8809079
:04097400F8E6F5802C
:10097800E4FDFCC3ED9FEE6480F8EC6480985015AC
:10098800E4FBFA0BBB00010AEB647D4A70F50DBD70
:0509980000010C80DEEF
:01099D002237
:10088C00EF75F00A84F515EF75F00A8485F016ED16
:10089C0075F00A84F517ED75F00A8485F018EB7580
:1008AC00F00A84F519EB75F00A8485F01AE4F9E97D
:1008BC00C3941974809480504F7F057E0012097880
:1008CC00C2A074082515120974D2A0C2A1740825FF
:1008DC0016120974D2A1C2A274082517120974D277
:1008EC00A2C2A374082518120974D2A3C2A4740856
:1008FC002519120974D2A4C2A57408251A120974F8
:08090C00D2A51209780980A7A9
:0109140022C0
:10091500E4F512F513F514C2B0B2B00514AB14AD7D
:1009250013AF1212088CAF147E00EF643B70020502
:1009350013E513643B7002051220B602051220B7B9
:10094500020513D3EF943BEE648094804003E4F5F5
:1009550014D3E513943B748094804003E4F513D3DA
:0F096500E51294187480948040AFE4F51280AAD4
:03000000020800F3
:0C080000787FE4F6D8FD75811A020847E5
:10080C00020915E493A3F8E493A34003F68001F2E4
:10081C0008DFF48029E493A3F85407240CC8C333ED
:10082C00C4540F4420C8834004F456800146F6DFBC
:10083C00E4800B010204081020408090099EE47EA5
:10084C00019360BCA3FF543F30E509541FFEE493B1
:10085C00A360010ECF54C025E060A840B8E493A378
:10086C00FAE493A3F8E493A3C8C582C8CAC583CAA3
:10087C00F0A3C8C582C8CAC583CADFE9DEE780BE5B
:0109AA00004C
:00000001FF
