:0C0953000A08C0F9A4B0999282F88090C4
:08092C00F8E6F5807F0A7E0069
:10093400EF1FAC0670011E4C6014758901758CFCA8
:0F094400758A18D28C308DFDC28DC28C80E22254
:10088C00EF75F00A84F515EF75F00A84A9F0ED7593
:10089C00F00A84FBED75F00A84ADF0E4FAEAC39437
:1008AC001974809480502CC2A07408251512092C40
:1008BC00D2A0C2A174082912092CD2A1C2A2740818
:1008CC002B12092CD2A2C2A374082D12092CD2A36C
:0308DC000A80CAC5
:0108DF0022F6
:1008E000E4F512F513F514C2B0B2B00514AD13AFB0
:1008F0001212088CE514643B70020513E513643B87
:100900007002051220B602051220B7020513D3E5C6
:1009100013943B748094804003E4F513D3E5129460
:0C092000187480948040C2E4F51280BD81
:03000000020800F3
:0C080000787FE4F6D8FD758115020847EA
:10080C000208E0E493A3F8E493A34003F68001F21A
:10081C0008DFF48029E493A3F85407240CC8C333ED
:10082C00C4540F4420C8834004F456800146F6DFBC
:10083C00E4800B0102040810204080900953E47EF0
:10084C00019360BCA3FF543F30E509541FFEE493B1
:10085C00A360010ECF54C025E060A840B8E493A378
:10086C00FAE493A3F8E493A3C8C582C8CAC583CAA3
:10087C00F0A3C8C582C8CAC583CADFE9DEE780BE5B
:01095F000097
:00000001FF
