:0C097C000A08C0F9A4B0999282F880909B
:10095600E4FDFCC3ED9FEE6480F8EC6480985015CE
:10096600E4FBFA0BBB00010AEB647D4A70F50DBD92
:0509760000010C80DE11
:01097B002259
:10088C00EF75F00A84FEEF75F00A8485F015ED75AE
:10089C00F00A84F516ED75F00A84A9F0C2A0AF0633
:1008AC0074082FF8E6F5807F017E00120956D2A05D
:1008BC00C2A174082515F8E6F580120956D2A1C21A
:1008CC00A274082516F8E6F580120956D2A2C2A326
:1008DC00AF0174082FF8E6F5807F01120956D2A3F8
:0508EC007F0602095621
:1008F100E4F512F513F514C2B0B2B020B60CE5144C
:1009010070057514018003E4F51420B705E4F512B0
:10091100F513AD13AF1212088CE514600205132014
:10092100B40905127FC87E0012095620B5091512B7
:100931007FC87E00120956E513646370040512F541
:1009410013E51264637002F512C37480948050A998
:05095100E4F51280A492
:03000000020800F3
:0C080000787FE4F6D8FD758116020847E9
:10080C000208F1E493A3F8E493A34003F68001F209
:10081C0008DFF48029E493A3F85407240CC8C333ED
:10082C00C4540F4420C8834004F456800146F6DFBC
:10083C00E4800B010204081020408090097CE47EC7
:10084C00019360BCA3FF543F30E509541FFEE493B1
:10085C00A360010ECF54C025E060A840B8E493A378
:10086C00FAE493A3F8E493A3C8C582C8CAC583CAA3
:10087C00F0A3C8C582C8CAC583CADFE9DEE780BE5B
:01098800006E
:00000001FF
