:100A33001410004000F900240030001900120002D5
:060A430000F800000010A5
:100A1300E4FDFCD3ED9FEC9E5015E4FBFA0BBB0009
:0F0A2300010AEB64334A70F50DBD00010C80E44D
:010A320022A1
:100A4A00EF25E02410F808E6F5A07F017E00020AEF
:010A5A001388
:08080000AD27AC26AF25AE24A4
:10080800AB05AA048F828E837C007D0A1209BE8CF8
:100818000C8D0DAE83AF827C007D0A1209BE8E0856
:100828008F097C007D0AAF03AE021209BE8C0E8DC3
:100838000FAE02AF037C007D0A1209BE8E0A8F0B31
:10084800758901758AFF758CDBD28C208D3ED2901C
:10085800C293C292C291AF09AE08120A4AD291C29B
:1008680093C292C290AF0DAE0C120A4AD292C293B2
:10087800C290C291AF0BAE0A120A4AD293C290C27A
:1008880092C291AF0FAE0E120A4A80BFC28CC28DBF
:01089800223D
:10089900D294D295D296C290C291C292C29375A0B7
:1008A900FFE4F52AF52BF528F52930940AE4FDFC37
:1008B900FFFE12080880F3852824852925D3E5251C
:1008C9009463E52494005033309530852A26852B8E
:1008D90027D3E5279463E52694005015309512E453
:1008E900F52AF52B1208000527E52770E40526806F
:1008F900E00525E52570C6052480C2D29585242802
:1009090085252985262A85272B30940830960512B6
:10091900080080F53094A0309603020899E4F52A7E
:09092900F52BF528F529020899C7
:03000000020932C0
:0C093200787FE4F6D8FD75812B0209796E
:1009BE00BC000BBE0029EF8DF084FFADF022E4CC1D
:1009CE00F875F008EF2FFFEE33FEEC33FCEE9DECE6
:1009DE00984005FCEE9DFE0FD5F0E9E4CEFD22ED2C
:1009EE00F8F5F0EE8420D21CFEADF075F008EF2F76
:1009FE00FFED33FD4007985006D5F0F222C398FD67
:050A0E000FD5F0EA2203
:10093E00020899E493A3F8E493A34003F68001F22E
:10094E0008DFF48029E493A3F85407240CC8C333BA
:10095E00C4540F4420C8834004F456800146F6DF89
:10096E00E4800B0102040810204080900A33E47EDC
:10097E00019360BCA3FF543F30E509541FFEE4937E
:10098E00A360010ECF54C025E060A840B8E493A345
:10099E00FAE493A3F8E493A3C8C582C8CAC583CA70
:1009AE00F0A3C8C582C8CAC583CADFE9DEE780BE28
:010A490000AC
:00000001FF
